{
  "_format": "hh3-artifact-1",
  "contractName": "HumanTaskVault",
  "sourceName": "contracts/HumanTaskVault.sol",
  "abi": [
    {
      "inputs": [],
      "stateMutability": "nonpayable",
      "type": "constructor"
    },
    {
      "anonymous": false,
      "inputs": [
        {
          "indexed": true,
          "internalType": "bytes32",
          "name": "taskId",
          "type": "bytes32"
        },
        {
          "indexed": true,
          "internalType": "address",
          "name": "depositor",
          "type": "address"
        },
        {
          "indexed": false,
          "internalType": "uint256",
          "name": "amount",
          "type": "uint256"
        }
      ],
      "name": "Deposited",
      "type": "event"
    },
    {
      "anonymous": false,
      "inputs": [
        {
          "indexed": true,
          "internalType": "bytes32",
          "name": "taskId",
          "type": "bytes32"
        },
        {
          "indexed": true,
          "internalType": "address",
          "name": "depositor",
          "type": "address"
        },
        {
          "indexed": false,
          "internalType": "uint256",
          "name": "amount",
          "type": "uint256"
        }
      ],
      "name": "Refunded",
      "type": "event"
    },
    {
      "anonymous": false,
      "inputs": [
        {
          "indexed": true,
          "internalType": "address",
          "name": "worker",
          "type": "address"
        },
        {
          "indexed": false,
          "internalType": "uint256",
          "name": "amount",
          "type": "uint256"
        }
      ],
      "name": "Withdrawn",
      "type": "event"
    },
    {
      "inputs": [
        {
          "internalType": "bytes32",
          "name": "taskId",
          "type": "bytes32"
        }
      ],
      "name": "deposit",
      "outputs": [],
      "stateMutability": "payable",
      "type": "function"
    },
    {
      "inputs": [
        {
          "internalType": "bytes32",
          "name": "",
          "type": "bytes32"
        }
      ],
      "name": "deposits",
      "outputs": [
        {
          "internalType": "address",
          "name": "depositor",
          "type": "address"
        },
        {
          "internalType": "uint256",
          "name": "amount",
          "type": "uint256"
        },
        {
          "internalType": "bool",
          "name": "refunded",
          "type": "bool"
        }
      ],
      "stateMutability": "view",
      "type": "function"
    },
    {
      "inputs": [
        {
          "internalType": "bytes32",
          "name": "taskId",
          "type": "bytes32"
        }
      ],
      "name": "getDeposit",
      "outputs": [
        {
          "internalType": "address",
          "name": "depositor",
          "type": "address"
        },
        {
          "internalType": "uint256",
          "name": "amount",
          "type": "uint256"
        },
        {
          "internalType": "bool",
          "name": "refunded",
          "type": "bool"
        }
      ],
      "stateMutability": "view",
      "type": "function"
    },
    {
      "inputs": [],
      "name": "owner",
      "outputs": [
        {
          "internalType": "address",
          "name": "",
          "type": "address"
        }
      ],
      "stateMutability": "view",
      "type": "function"
    },
    {
      "inputs": [
        {
          "internalType": "bytes32",
          "name": "taskId",
          "type": "bytes32"
        }
      ],
      "name": "refund",
      "outputs": [],
      "stateMutability": "nonpayable",
      "type": "function"
    },
    {
      "inputs": [],
      "name": "totalDeposited",
      "outputs": [
        {
          "internalType": "uint256",
          "name": "",
          "type": "uint256"
        }
      ],
      "stateMutability": "view",
      "type": "function"
    },
    {
      "inputs": [],
      "name": "vaultBalance",
      "outputs": [
        {
          "internalType": "uint256",
          "name": "",
          "type": "uint256"
        }
      ],
      "stateMutability": "view",
      "type": "function"
    },
    {
      "inputs": [
        {
          "internalType": "address payable",
          "name": "worker",
          "type": "address"
        },
        {
          "internalType": "uint256",
          "name": "amount",
          "type": "uint256"
        }
      ],
      "name": "withdraw",
      "outputs": [],
      "stateMutability": "nonpayable",
      "type": "function"
    }
  ],
  "bytecode": "0x6080604052348015600e575f5ffd5b505f80546001600160a01b031916331790556107d08061002d5f395ff3fe608060405260043610610079575f3560e01c80638da5cb5b1161004c5780638da5cb5b14610190578063b214faa5146101c6578063f3fef3a3146101d9578063ff50abdc146101f8575f5ffd5b80630bf6cc081461007d5780633d4dff7b1461009e5780637249fbb61461010d5780637a86983f1461012e575b5f5ffd5b348015610088575f5ffd5b50475b6040519081526020015b60405180910390f35b3480156100a9575f5ffd5b506100e66100b8366004610729565b600160208190525f91825260409091208054918101546002909101546001600160a01b039092169160ff1683565b604080516001600160a01b0390941684526020840192909252151590820152606001610095565b348015610118575f5ffd5b5061012c610127366004610729565b61020d565b005b348015610139575f5ffd5b506100e6610148366004610729565b5f81815260016020818152604092839020835160608101855281546001600160a01b03168082529382015492810183905260029091015460ff16151593018390529093909250565b34801561019b575f5ffd5b505f546101ae906001600160a01b031681565b6040516001600160a01b039091168152602001610095565b61012c6101d4366004610729565b6103e3565b3480156101e4575f5ffd5b5061012c6101f3366004610740565b61052f565b348015610203575f5ffd5b5061008b60025481565b5f546001600160a01b031633146102575760405162461bcd60e51b81526020600482015260096024820152682737ba1037bbb732b960b91b60448201526064015b60405180910390fd5b5f818152600160208190526040909120908101546102aa5760405162461bcd60e51b815260206004820152601060248201526f139bc819195c1bdcda5d08199bdd5b9960821b604482015260640161024e565b600281015460ff16156102f25760405162461bcd60e51b815260206004820152601060248201526f105b1c9958591e481c99599d5b99195960821b604482015260640161024e565b60028101805460ff191660019081179091558154908201546040515f926001600160a01b031691908381818185875af1925050503d805f8114610350576040519150601f19603f3d011682016040523d82523d5f602084013e610355565b606091505b50509050806103965760405162461bcd60e51b815260206004820152600d60248201526c1499599d5b990819985a5b1959609a1b604482015260640161024e565b815460018301546040519081526001600160a01b039091169084907ff552ca82e113ac3c539c3d617f29fcd19c172a0c75dad017555c9e109f7fe1839060200160405180910390a3505050565b5f34116104245760405162461bcd60e51b815260206004820152600f60248201526e4d7573742073656e642066756e647360881b604482015260640161024e565b5f81815260016020819052604090912001541561047c5760405162461bcd60e51b81526020600482015260166024820152754465706f73697420616c72656164792065786973747360501b604482015260640161024e565b604080516060810182523381523460208083018281525f848601818152878252600193849052958120945185546001600160a01b0319166001600160a01b0390911617855590519184019190915592516002928301805460ff191691151591909117905581549092906104f0908490610775565b9091555050604051348152339082907f87d4c0b5e30d6808bc8a94ba1c4d839b29d664151551a31753387ee9ef48429b9060200160405180910390a350565b5f546001600160a01b031633146105745760405162461bcd60e51b81526020600482015260096024820152682737ba1037bbb732b960b91b604482015260640161024e565b6001600160a01b0382166105bc5760405162461bcd60e51b815260206004820152600f60248201526e496e76616c6964206164647265737360881b604482015260640161024e565b5f81116106005760405162461bcd60e51b81526020600482015260126024820152710416d6f756e74206d757374206265203e20360741b604482015260640161024e565b804710156106505760405162461bcd60e51b815260206004820152601a60248201527f496e73756666696369656e74207661756c742062616c616e6365000000000000604482015260640161024e565b5f826001600160a01b0316826040515f6040518083038185875af1925050503d805f8114610699576040519150601f19603f3d011682016040523d82523d5f602084013e61069e565b606091505b50509050806106e15760405162461bcd60e51b815260206004820152600f60248201526e151c985b9cd9995c8819985a5b1959608a1b604482015260640161024e565b826001600160a01b03167f7084f5476618d8e60b11ef0d7d3f06914655adb8793e28ff7f018d4c76d505d58360405161071c91815260200190565b60405180910390a2505050565b5f60208284031215610739575f5ffd5b5035919050565b5f5f60408385031215610751575f5ffd5b82356001600160a01b0381168114610767575f5ffd5b946020939093013593505050565b8082018082111561079457634e487b7160e01b5f52601160045260245ffd5b9291505056fea2646970667358221220262df6113ee654414ad26bc93913d701bf76f3b7278f07ab727ede23e5d7249264736f6c634300081c0033",
  "linkReferences": {},
  "deployedLinkReferences": {},
  "immutableReferences": {},
  "inputSourceName": "project/contracts/HumanTaskVault.sol",
  "buildInfoId": "solc-0_8_28-cf9773d77f506f573e47cd3f226611c985fd215e"
}